:100000000C942A000C943C000C943C000C943C0092
:100010000C943C000C943C000C943C000C943C0070
:100020000C943C000C943C000C943C000C9440025A
:100030000C943C000C943C000C943C000C943C0050
:100040000C943C000C943C000C943C000C943C0040
:100050000C943C0011241FBECFE5D8E0DEBFCDBF1D
:1000600020E0A0E6B0E001C01D92A336B207E1F7A0
:100070000E941D020C94C3020C940000813041F0D8
:1000800028F0823039F0833039F008956ABB089542
:1000900067BB089564BB089561BB08954130A1F525
:1000A000813089F028F08230C9F0833011F1089551
:1000B0002AB381E090E002C0880F991F6A95E2F7A9
:1000C000822B8ABB089527B381E090E002C0880F9D
:1000D000991F6A95E2F7822B87BB089524B381E0CC
:1000E00090E002C0880F991F6A95E2F7822B84BBCB
:1000F000089521B381E090E002C0880F991F6A95AE
:10010000E2F7822B81BB0895411137C0813091F015
:1001100028F08230D9F0833029F108952AB381E0A4
:1001200090E002C0880F991F6A95E2F780958223BC
:100130008ABB089527B381E090E002C0880F991F21
:100140006A95E2F78095822387BB089524B381E006
:1001500090E002C0880F991F6A95E2F7809582238C
:1001600084BB089521B381E090E002C0880F991FFD
:100170006A95E2F78095822381BB08954423A1F11B
:10018000813089F028F08230C9F0833011F1089570
:100190002BB381E090E002C0880F991F6A95E2F7C7
:1001A000822B8BBB089528B381E090E002C0880FBA
:1001B000991F6A95E2F7822B88BB089525B381E0E9
:1001C00090E002C0880F991F6A95E2F7822B85BBE9
:1001D000089522B381E090E002C0880F991F6A95CC
:1001E000E2F7822B82BB0895813091F028F08230B3
:1001F000D9F0833029F108952BB381E090E002C05B
:10020000880F991F6A95E2F7809582238BBB08952A
:1002100028B381E090E002C0880F991F6A95E2F749
:100220008095822388BB089525B381E090E002C0C9
:10023000880F991F6A95E2F78095822385BB089500
:1002400022B381E090E002C0880F991F6A95E2F71F
:100250008095822382BB0895CF93C82F40E063E04E
:1002600080E00E94BE0040E062E080E00E94BE00AC
:1002700088B39C2F92959F709770887F892B88BB3D
:10028000CC2324F488B3806188BB03C088B38F7EFD
:1002900088BB41E062E080E00E94BE008FE19EE406
:1002A0000197F1F700C0000040E062E080E00E94AA
:1002B000BE0088B39C2F9770887F892B88BBC3FFB3
:1002C00004C088B3806188BB03C088B38F7E88BBBD
:1002D00041E062E080E00E94BE008FE19EE4019771
:1002E000F1F700C0000040E062E080E00E94BE0044
:1002F000CF91089541E063E080E00E944E0041E02C
:1003000062E080E00E944E006FEF81E00E943E00BC
:100310002FEF89EF90E0215080409040E1F700C03E
:10032000000088E20E942C018FE00E942C0181E0F5
:100330000E942C010895CF93C82F41E063E080E034
:100340000E94BE0040E062E080E00E94BE0040E00B
:1003500061E080E00E94BE0088B39C2F92959F7060
:100360009770887F892B88BBCC2324F488B3806165
:1003700088BB03C088B38F7E88BB41E062E080E029
:100380000E94BE008FE19EE40197F1F700C00000DB
:1003900040E062E080E00E94BE0088B39C2F97702E
:1003A000887F892B88BBC3FF04C088B3806188BB6A
:1003B00003C088B38F7E88BB41E062E080E00E948A
:1003C000BE008FE19EE40197F1F700C0000040E01D
:1003D00062E080E00E94BE00CF910895CF93DF934A
:1003E000EC0103C021960E949B0188818111FACF04
:1003F000DF91CF910895CF93DF93CDB7DEB76097AC
:100400000FB6F894DEBF0FBECDBF4AE0BE016F5FEE
:100410007F4F90E00E948E02CE0101960E94EE0175
:1004200060960FB6F894DEBF0FBECDBFDF91CF91BF
:10043000089581E00E942C01089541E065E080E08C
:100440000E944E008FB780688FBF0E947A010E9481
:1004500019020E9436020E941902809161000E94D6
:10046000FB01809162000E94FB01F5CF84E083BF15
:1004700089B7816089BF86E082BF089513BE089561
:100480001F920F920FB60F9211242F933F934F9309
:100490005F936F937F938F939F93AF93BF93EF93EC
:1004A000FF93809160008A3F18F48F5F8093600013
:1004B000809160008A3F59F49BB380E289278BBB0F
:1004C000809161008F5F8093610010926000809145
:1004D00061008A3039F410926100809162008F5F70
:1004E0008093620080916200863021F41092620055
:1004F0000E943E0288B7816088BFFF91EF91BF9153
:10050000AF919F918F917F916F915F914F913F91AB
:100510002F910F900FBE0F901F901895BB274A3058
:1005200031F4992322F4BDE2909581959F4F0C946C
:100530009A02BB27FB015527AA27880F991FAA1FDC
:10054000A41710F0A41B83955051B9F7A05DAA33EE
:1005500008F0A95DA193009779F7B111B1931192B9
:10056000CB010C94B302DC01FC01672F719177235E
:10057000E1F7329704C07C916D9370836291AE175E
:0A058000BF07C8F30895F894FFCFF9
:00000001FF
