S00C0000554152542E73726563DC
S11300000C942A000C943C000C943C000C943C008E
S11300100C943C000C943C000C943C000C943C006C
S11300200C943C000C943C000C943C000C943C005C
S11300300C943C000C94F4000C943C000C943C0094
S11300400C943C000C943C000C943C000C943C003C
S11300500C943C0011241FBECFE5D8E0DEBFCDBF19
S113006020E0A0E6B0E001C01D92A837B207E1F796
S11300700E9478000C9440010C94000040916000B0
S1130080509161006091620070916300FA01E2593D
S1130090FF4F8083493051056105710561F0FA0114
S11300A0E259FF4F80818A3031F0FA01E259FF4F63
S11300B080818D3081F4FA01E259FF4F1082109251
S11300C0600010926100109262001092630081E05F
S11300D08093640008954F5F5F4F6F4F7F4F40934D
S11300E06000509361006093620070936300089510
S11300F0E7E6F0E080E895E2A0E0B0E08383948353
S1130100A583B68383E0808311821282CF010E948B
S1130110B7008EE390E00E94EF0081E60E94940015
S113012082E60E949400F9CF5D9BFECF8CB90895BE
S11301309B01AC0160E074E284EF90E00E941E0138
S1130140DA01C901689412F8B695A7959795879531
S11301501694D1F70197A109B1098F3F9105A10523
S1130160B10510F489B9089580BD19B80895FC014A
S11301708081873019F48AB184608AB98AB1886130
S11301808AB98BB182608BB940B5818120E1829FAD
S1130190C00111249281292F30E0220F331F220F36
S11301A0331F220F331F8068282B242B20BD9081FE
S11301B0973039F480B5846080BD80B5826080BD9D
S11301C007C080B5292F30E0220F331F282B20BD14
S11301D063817481858196810E949800089590932B
S11301E066008093650008951F920F920FB60F92D8
S11301F011242F933F934F935F936F937F938F9328
S11302009F93AF93BF93EF93FF93E0916500F091B9
S11302106600309711F08CB10995FF91EF91BF9171
S1130220AF919F918F917F916F915F914F913F918A
S11302302F910F900FBE0F901F901895A1E21A2EC8
S1130240AA1BBB1BFD010DC0AA1FBB1FEE1FFF1F76
S1130250A217B307E407F50720F0A21BB30BE40BC6
S1130260F50B661F771F881F991F1A9469F760950D
S11302707095809590959B01AC01BD01CF010895C7
S1070280F894FFCF1C
S9030000FC
