S00C0000554152542E73726563DC
S11300000C942A000C943C000C943C000C943C008E
S11300100C943C000C943C000C943C000C943C006C
S11300200C943C000C943C000C943C000C943C005C
S11300300C943C000C9426010C943C000C943C0061
S11300400C943C000C943C000C943C000C943C003C
S11300500C943C0011241FBECFE5D8E0DEBFCDBF19
S113006020E0A0E6B0E001C01D92A837B207E1F796
S11300700E9478000C9454020C940000409160009B
S1130080509161006091620070916300FA01E2593D
S1130090FF4F8083493051056105710561F0FA0114
S11300A0E259FF4F80818A3031F0FA01E259FF4F63
S11300B080818D3081F4FA01E259FF4F1082109251
S11300C0600010926100109262001092630081E05F
S11300D08093640008954F5F5F4F6F4F7F4F40934D
S11300E06000509361006093620070936300089510
S11300F0E7E6F0E080E895E2A0E0B0E08383948353
S1130100A583B68383E0808311821282CF010E948B
S1130110E7008EE390E00E9421018FB780688FBFD3
S113012080E090E00E94B40080E090E00E94A10092
S1130130F7CF5D9BFECF8CB908955F9BFECF8CB14A
S113014008950F931F93CF938C01C0E003C00E94C6
S11301509900CF5FF801EC0FF11D80818111F7CF79
S1130160CF911F910F910895CF93DF93EC010E94DB
S11301709D008883FE01319780818130C1F7108210
S1130180DF91CF910895880F991F880F991F880FC9
S1130190991F9C0140E050E060E074E284EF90E03D
S11301A00E94320221503109B90180E090E00E949E
S11301B07F010E94E5010E9450016F3F710510F418
S11301C069B9089560BD872F8F7089B90895FC01BE
S11301D08AB188618AB98081873021F48AB18460C8
S11301E08AB903C08AB18B7F8AB98BB182608BB91B
S11301F04AB1818120E1829FC00111249281292F7B
S113020030E0220F331F220F331F220F331F806869
S1130210282B242B2AB99081973039F480B5846037
S113022080BD80B5826080BD07C08AB1292F30E0CF
S1130230220F331F282B2AB9838194810E94C30083
S11302400895909366008093650008951F920F921D
S11302500FB60F9211242F933F934F935F936F9395
S11302607F938F939F93AF93BF93EF93FF93E0910B
S11302706500F0916600309711F08CB10995FF91FB
S1130280EF91BF91AF919F918F917F916F915F910A
S11302904F913F912F910F900FBE0F901F90189583
S11302A00E94C40188F09F5798F0B92F9927B7513D
S11302B0B0F0E1F0660F771F881F991F1AF0BA9506
S11302C0C9F714C0B13091F00E94DE01B1E0089585
S11302D00C94DE01672F782F8827B85F39F0B93F77
S11302E0CCF3869577956795B395D9F73EF49095B9
S11302F08095709561957F4F8F4F9F4F0895E89437
S113030009C097FB3EF490958095709561957F4F59
S11303108F4F9F4F9923A9F0F92F96E9BB27939507
S1130320F695879577956795B795F111F8CFFAF417
S1130330BB0F11F460FF1BC06F5F7F4F8F4F9F4F48
S113034016C0882311F096E911C0772321F09EE8A6
S1130350872F762F05C0662371F096E8862F70E00C
S113036060E02AF09A95660F771F881FDAF7880FE6
S11303709695879597F9089557FD9058440F551F02
S113038059F05F3F71F04795880F97FB991F61F013
S11303909F3F79F087950895121613061406551F8A
S11303A0F2CF4695F1DF08C0161617061806991FF6
S11303B0F1CF86957105610508940895E894BB27EB
S11303C066277727CB0197F908950E94C401E8F0C6
S11303D09E37E8F09639B8F49E3848F4672F782FA2
S11303E08827985FF9CF8695779567959395953982
S11303F0D0F3B62FB1706B0F711D811D20F487955A
S11304007795679593950C9409020C9424020C94A7
S1130410DF01882371F4772321F09850872B762FFE
S113042007C0662311F499270DC09051862B70E004
S113043060E02AF09A95660F771F881FDAF7880F15
S11304409695879597F908959F3F31F0915020F440
S1130450879577956795B795880F911D969587959C
S113046097F90895A1E21A2EAA1BBB1BFD010DC02A
S1130470AA1FBB1FEE1FFF1FA217B307E407F50750
S113048020F0A21BB30BE40BF50B661F771F881F2C
S1130490991F1A9469F760957095809590959B01C2
S10F04A0AC01BD01CF010895F894FFCF1A
S9030000FC
