S00C0000414443312E737265631F
S11300000C942A000C9447000C9447000C9447006D
S11300100C9447000C9447000C9447000C94470040
S11300200C9447000C9447000C9447000C94470030
S11300300C9447000C9447000C9447000C94470020
S11300400C948B020C9447000C9447000C944700CA
S11300500C94470011241FBECFE5D8E0DEBFCDBF0E
S113006010E0A0E6B0E0E0ECF5E002C005900D92EF
S1130070AC36B107D9F720E0ACE6B0E001C01D9280
S1130080AF36B207E1F70E9452020C94DE020C94E0
S1130090000086B1806886B98FB780688FBF86B14B
S11300A0886086B960E080E00E947A0087B180644D
S11300B087B986B1876086B9089597B1907F97B95B
S11300C097B1892B87B986B1806486B98FE39CE99F
S11300D00197F1F700C0000024B185B1837090E06E
S11300E0982F8827822BFB019183808386B18061BE
S11300F086B90895813041F028F0823039F0833098
S113010039F008956ABB089567BB089564BB0895E8
S113011061BB08954130A1F5813089F028F0823027
S1130120C9F0833011F108952AB381E090E002C050
S1130130880F991F6A95E2F7822B8ABB089527B32B
S113014081E090E002C0880F991F6A95E2F7822B44
S113015087BB089524B381E090E002C0880F991F03
S11301606A95E2F7822B84BB089521B381E090E085
S113017002C0880F991F6A95E2F7822B81BB08950C
S1130180411137C0813091F028F08230D9F08330AA
S113019029F108952AB381E090E002C0880F991FE5
S11301A06A95E2F7809582238ABB089527B381E09C
S11301B090E002C0880F991F6A95E2F78095822328
S11301C087BB089524B381E090E002C0880F991F93
S11301D06A95E2F78095822384BB089521B381E078
S11301E090E002C0880F991F6A95E2F780958223F8
S11301F081BB08954423A1F1813089F028F0823035
S1130200C9F0833011F108952BB381E090E002C06E
S1130210880F991F6A95E2F7822B8BBB089528B348
S113022081E090E002C0880F991F6A95E2F7822B63
S113023088BB089525B381E090E002C0880F991F20
S11302406A95E2F7822B85BB089522B381E090E0A2
S113025002C0880F991F6A95E2F7822B82BB08952A
S1130260813091F028F08230D9F0833029F108955B
S11302702BB381E090E002C0880F991F6A95E2F7E2
S1130280809582238BBB089528B381E090E002C05F
S1130290880F991F6A95E2F78095822388BB089599
S11302A025B381E090E002C0880F991F6A95E2F7B8
S11302B08095822385BB089522B381E090E002C03B
S11302C0880F991F6A95E2F78095822382BB08956F
S11302D0CF93C82F40E063E080E00E94FA0040E042
S11302E062E080E00E94FA0088B39C2F92959F7090
S11302F09770887F892B88BBCC2324F488B38061D2
S113030088BB03C088B38F7E88BB41E062E080E095
S11303100E94FA008FE19EE40197F1F700C000000B
S113032040E062E080E00E94FA0088B39C2F97705E
S1130330887F892B88BBC3FF04C088B3806188BBD6
S113034003C088B38F7E88BB41E062E080E00E94F6
S1130350FA008FE19EE40197F1F700C0000040E04D
S113036062E080E00E94FA00CF91089541E063E0EA
S113037080E00E948A0041E062E080E00E948A00FE
S11303806FEF81E00E947A002FEF89EF90E0215017
S113039080409040E1F700C0000088E20E946801BC
S11303A08FE00E94680181E00E9468010895CF9364
S11303B0C82F41E063E080E00E94FA0040E062E080
S11303C080E00E94FA0040E061E080E00E94FA00D0
S11303D088B39C2F92959F709770887F892B88BBD8
S11303E0CC2324F488B3806188BB03C088B38F7E98
S11303F088BB41E062E080E00E94FA008FE19EE465
S11304000197F1F700C0000040E062E080E00E9444
S1130410FA0088B39C2F9770887F892B88BBC3FF11
S113042004C088B3806188BB03C088B38F7E88BB57
S113043041E062E080E00E94FA008FE19EE40197CF
S1130440F1F700C0000040E062E080E00E94FA00A2
S1130450CF910895CF93DF93EC0103C021960E94BE
S1130460D70188818111FACFDF91CF91089581302E
S113047031F070F0823031F0833039F00AC090E40A
S1130480960F07C090E4960F04C090E4960F01C045
S1130490962F892F80680E946801089581E00E9448
S11304A068010895CF93DF9300D000D01F92CDB799
S11304B0DEB740E060E080E00E948A000E944900CC
S11304C00E94B6010E944E0280E690E00E942A0239
S11304D06BE080E00E9437026CE670E080E00E94EE
S11304E05D004AE0BE016F5F7F4F80916C00909188
S11304F06D000E94A902CE0101960E942A022FEFEC
S113050083ED90E3215080409040E1F700C000006B
S11305100E944E02D9CF1F920F920FB60F92112450
S11305202F938F939F9324B185B1837090E0982F7C
S11305308827822B90936D0080936C0086B1806134
S113054086B99F918F912F910F900FBE0F901F909E
S11305501895BB274A3031F4992322F4BDE29095D3
S113056081959F4F0C94B502BB27FB015527AA2701
S1130570880F991FAA1FA41710F0A41B839550512C
S1130580B9F7A05DAA3308F0A95DA193009779F7A4
S1130590B111B1931192CB010C94CE02DC01FC0198
S11305A0672F71917723E1F7329704C07C916D93A3
S11305B070836291AE17BF07C8F30895F894FFCF14
S10F05C04144432076616C75653A2000CC
S9030000FC
