S013000044494F5F50524F4A4543542E73726563BF
S11300000C942A000C943F000C943F000C943F0085
S11300100C943F000C943F000C943F000C943F0060
S11300200C943F000C943F000C943F000C943F0050
S11300300C943F000C943F000C943F000C943F0040
S11300400C943F000C943F000C943F000C943F0030
S11300500C943F0011241FBECFE5D8E0DEBFCDBF16
S113006010E0A0E6B0E0ECEEF5E002C005900D92E1
S1130070A438B107D9F70E94DF020C94F4020C945F
S1130080000041E067E083E00E94E30041E066E0B5
S113009083E00E94E30041E065E083E00E94E30026
S11300A041E063E083E00E94E30040E065E082E039
S11300B00E94E30040E064E082E00E94E30040E04C
S11300C063E082E00E94E30040E062E082E00E949C
S11300D0E30041E067E083E00E94530141E066E011
S11300E083E00E94530141E065E083E00E945301F4
S11300F041E063E083E00E9453010895FF920F936F
S11301001F93CF93DF931F92CDB7DEB71982F12CE3
S113011007E03EC00430D9F140E0602F83E00E9444
S1130120530115E02DC0AE014F5F5F4F612F82E098
S11301300E94C1018981811122C0812F90E005971D
S1130140202F30E027503109880F991F880F991FFD
S1130150805A9F4FFC01E20FF31FF08007C0AE01ED
S11301604F5F5F4F612F82E00E94C1018981882324
S1130170B1F38FE19EE40197F1F700C00000115044
S1130180123088F641E0602F83E00E945301015051
S1130190033008F0BFCF8F2D0F90DF91CF911F91C7
S11301A00F91FF900895813041F028F0823039F0AA
S11301B0833039F008956ABB089567BB089564BB22
S11301C0089561BB08954130A1F5813089F028F08C
S11301D08230C9F0833011F108952AB381E090E0B0
S11301E002C0880F991F6A95E2F7822B8ABB089593
S11301F027B381E090E002C0880F991F6A95E2F767
S1130200822B87BB089524B381E090E002C0880F5D
S1130210991F6A95E2F7822B84BB089521B381E08C
S113022090E002C0880F991F6A95E2F7822B81BB88
S11302300895411137C0813091F028F08230D9F00F
S1130240833029F108952AB381E090E002C0880F39
S1130250991F6A95E2F7809582238ABB089527B394
S113026081E090E002C0880F991F6A95E2F78095BB
S1130270822387BB089524B381E090E002C0880FF5
S1130280991F6A95E2F78095822384BB089521B370
S113029081E090E002C0880F991F6A95E2F780958B
S11302A0822381BB08954423A1F1813089F028F091
S11302B08230C9F0833011F108952BB381E090E0CE
S11302C002C0880F991F6A95E2F7822B8BBB0895B1
S11302D028B381E090E002C0880F991F6A95E2F785
S11302E0822B88BB089525B381E090E002C0880F7B
S11302F0991F6A95E2F7822B85BB089522B381E0AA
S113030090E002C0880F991F6A95E2F7822B82BBA6
S11303100895813091F028F08230D9F0833029F1AA
S113032008952BB381E090E002C0880F991F6A956D
S1130330E2F7809582238BBB089528B381E090E097
S113034002C0880F991F6A95E2F78095822388BBC3
S1130350089525B381E090E002C0880F991F6A9543
S1130360E2F78095822385BB089522B381E090E073
S113037002C0880F991F6A95E2F78095822382BB99
S11303800895813089F028F08230C9F0833011F16A
S113039008958BB390E002C0959587956A95E2F72E
S11303A08170FA018083089588B390E002C0959526
S11303B087956A95E2F78170FA018083089585B381
S11303C090E002C0959587956A95E2F78170FA01ED
S11303D08083089582B390E002C0959587956A95CD
S11303E0E2F78170FA0180830895CF93C82F40E02B
S11303F063E080E00E94530140E062E080E00E94FC
S1130400530188B39C2F92959F709770887F892B96
S113041088BBCC2324F488B3806188BB03C088B331
S11304208F7E88BB41E062E080E00E9453018FE14F
S11304309EE40197F1F700C0000040E062E080E034
S11304400E94530188B39C2F9770887F892B88BBA7
S1130450C3FF04C088B3806188BB03C088B38F7EA8
S113046088BB41E062E080E00E9453018FE19EE49A
S11304700197F1F700C0000040E062E080E00E94D4
S11304805301CF91089541E063E080E00E94E300CE
S113049041E062E080E00E94E3006FEF81E00E94AF
S11304A0D3002FEF89EF90E0215080409040E1F796
S11304B000C0000088E20E94F5018FE00E94F5016F
S11304C081E00E94F5010895CF93C82F41E063E0D5
S11304D080E00E94530140E062E080E00E9453010A
S11304E040E061E080E00E94530188B39C2F929524
S11304F09F709770887F892B88BBCC2324F488B3A2
S1130500806188BB03C088B38F7E88BB41E062E012
S113051080E00E9453018FE19EE40197F1F700C04F
S1130520000040E062E080E00E94530188B39C2F09
S11305309770887F892B88BBC3FF04C088B3806110
S113054088BB03C088B38F7E88BB41E062E080E053
S11305500E9453018FE19EE40197F1F700C000006F
S113056040E062E080E00E945301CF910895CF9370
S1130570DF93EC0103C021960E94640288818111FB
S1130580FACFDF91CF910895813031F070F082304D
S113059031F0833039F00AC090E4960F07C090E43C
S11305A0960F04C090E4960F01C0962F892F80689F
S11305B00E94F501089581E00E94F50108950E94CA
S11305C043020E9441000E94DB0280E790E00E9407
S11305D0B70260E081E00E94C4020E947E0088238A
S10F05E0E1F30E946402F9CFF894FFCF0D
S11305EC01020304050607080941424344454647F2
S11305FC4D6F68616D656420416264656C73616DF7
S107060C69652000F8
S9030000FC
